:020000040000FA
:1000000080080020550100008301000085010000E8
:100010001D0F0000350D0000000000000000000072
:10002000000000000000000000000000950100003A
:10003000000000000000000097010000990100008E
:100040009B0100009B0100009B0100009B01000040
:100050009B0100009B0100009B0100009B01000030
:100060009B0100009B0100009B0100009B01000020
:100070009B0100009B0100009B0100009B01000010
:100080009B0100009B0100009B0100009B01000000
:100090009B0100009B0100009B0100009B010000F0
:1000A0009B0100009B0100009B0100009B010000E0
:1000B0009B0100009B0100009B0100009B010000D0
:1000C0009B010000ED1200009B0100009B0100005D
:1000D000491300009B0100009B0100009B010000F0
:1000E0009B0100009B0100009B0100009B010000A0
:1000F0009B0100009B0100009B0100009B01000090
:100100009B0100009B0100009B0100009B0100007F
:100110009B0100009B0100009B0100009B0100006F
:100120009B0100009B0100009B0100009B0100005F
:100130009B0100009B0100009B0100009B0100004F
:100140000348854600F04CFA004800478D17000030
:1001500080080020154840F25901016040F2160164
:10016000016040F28801016011488047114A45F65C
:10017000A5211160104A11600C48002101600F4850
:100180000047FEE77046EFF30881EFF309820C4B5E
:1001900098470047FEE7FEE7FEE7FEE7ABBE094BE8
:1001A00008B5984708BD7046F047000000010040C0
:1001B0000511000024000040EC0100404101000056
:1001C000510D0000E10D000030B50B460146002046
:1001D0002022012409E00D46D5409D4205D31D464D
:1001E0009540491B2546954040191546521E002D45
:1001F000F1DC30BDF0B51FB40646002082B00546E4
:100200004024019100901BE0019922460F463046A0
:1002100000F008FA049A059B801A994110D3104601
:100220001946224600F0EEF9361A8F410197224610
:1002300001200021009F00F0E5F938184D410090A1
:100240002046641E0028DFDC019B009829463246C8
:1002500007B0F0BDF0B507460846584087B0C00F5C
:10026000049048000E46590040084908BC1A8841CD
:1002700005D2384631461E4617460B460246580000
:10028000400810434CD0300D039040055900400DFC
:10029000490D0590401A0290402872DA1803012196
:1002A000000B09050843019004980092002805D02E
:1002B0000199524200208841009201900298402109
:1002C0000A1A0199009800F09DF905460C466B4604
:1002D00007CB00F0B8F9C0197141039A0E0D002345
:1002E000D71756401A467A40164344D0049A002A3B
:1002F0002DD0029A012A039A15DC1205C01A9141E9
:1003000001263605001C7141D20F059ED2070093CD
:10031000019202962A46234600F0B5F907B0F0BDD7
:1003200038463146FAE71605224A0F46B218C01A77
:10033000B74101210905001C4F4100187F411146BA
:1003400018187941E20F10436D19644113E0E20778
:100350006D0815436408C2071443039A0126120569
:10036000C01A91413605001C7141CE074008304348
:100370004908C01851412A46234600F077F9CDE7D5
:10038000FFE7049801224000C117121A00238B4195
:1003900004983146C417381AA141EEE730B401245D
:1003A000E407634030BC55E730B40124E407614002
:1003B00030BC4FE70000E0FFF0B51FB488B00B99E8
:1003C0000998002448400999C00F4900490809913B
:1003D000C0070B990090490049080B9109990898AA
:1003E000A64608431CD00B990A98084318D00998D0
:1003F00001244000420D4800410D099824050003E6
:10040000000B204309900B980003000B20430B9036
:1004100050181C494018002201901446104605E06F
:10042000002001460DB0F0BD032801DA034600E0CC
:1004300003239C46C11A0AAE0AE05F0008ADED5BDB
:100440004F00F75B7D430027AA187C41491C5B1EC7
:100450006145F2DD410004AB5A522104120C0A43FB
:10046000240C401C0828DFDB01980290009970469C
:1004700001910090059B049A0799069800F003F9F2
:10048000D0E700000DFCFFFFF0B50C465C4085B0E6
:10049000E40FE40703944C000026640859009446D6
:1004A000490802460296224321D062460A431ED0E2
:1004B0006200570D4A000E032303550D0124024626
:1004C0002C492405781B1B0B360B4018234326436D
:1004D000614600901C46501AB44103D30098401C5A
:1004E000009002E0921800985B41002803DA002097
:1004F000014605B0F0BD00200121090507468646EA
:1005000011E064461D46141BB54106D36546521BD7
:10051000B341744607430C43A646CD07400849083B
:10052000284392185B4105460D43EAD11046184313
:1005300013D06046194650407140084306D06046CB
:10054000101AB34106D20122002306E00022012343
:10055000DB0702E00122D2435310009874460105E4
:10056000381C6141029C039D0019694100F07EF82E
:10057000BFE70000FD0300004A0009030123090B47
:100580001B0519430A4B10B5520D9A4202DA00209E
:10059000014610BD064B34339A4203DC9A1A00F030
:1005A00041F810BD034BD21800F02CF810BD00002C
:1005B000FF030000CDFBFFFF10B5002904DB012481
:1005C000E40740428C412146002B04DB1C460123FA
:1005D000DB075242A341994200D1904210BD000076
:1005E000064C0125064E05E0E36807CC2B430C3C86
:1005F00098471034B442F7D3FFF7A6FD4822000015
:100600006822000010B5202A04DB0146203A914000
:10061000002010BD914020239C1A0346E34019435B
:10062000904010BD10B5202A04DB0846203AD04087
:10063000002110BD0B46D340D0402024A21A914087
:100640000843194610BD10B5202A06DBCB17084613
:10065000203A1041C1170B4306E00B461341D0402E
:100660002024A21A91400843194610BD10B5002B52
:1006700008DA0024401C614192185B411A4301D101
:100680004008400010BDF0B51FB482B005460C0014
:1006900003D0084601F0A4F802E001F0A1F82030F0
:1006A0000246009021462846FFF7ACFF049B059ABE
:1006B00004460F4618431143084314D0184610430C
:1006C0001BD0009840210A1A18460599FFF7AAFF87
:1006D00005460E46009A05990498FFF793FF0843D4
:1006E00005D0012004E02046394607B0F0BD0020C7
:1006F000C11705430E432C43374300990E986305F9
:10070000401A7905E40A00220C43FD0A0A3002D59A
:1007100000200146E9E70105101969410C9C0D9D77
:1007200000196941FFF7A2FFDFE7000010B585B0AF
:10073000014604900C488268039242680292006865
:10074000019004981F220346134001229A40000F93
:100750000C23184001AB1858044BC4581443C45020
:10076000009105B010BDC046D82000000402004032
:1007700082B0014601900198A34A136803431360B5
:10078000009102B07047C04680B500F07BFC554830
:10079000006880BD81B09C4800680121084203D0F8
:1007A000FFE77C48009002E000200090FFE70098FF
:1007B00001B0704781B0944800680221084204D01B
:1007C000FFE748F20000009002E000200090FFE701
:1007D000009801B07047C04680B582B000F052FC6E
:1007E0003F48006807210840052800902DD8009850
:1007F000810001A251188F4600F00AB800F00CB831
:1008000000F00FB800F012B800F015B800F018B8FA
:100810003448006801901BE03248006840080190AD
:1008200016E0304800688008019011E02D4800680B
:10083000C00801900CE02B4800680009019007E017
:10084000284800684009019002E000200190FFE77D
:10085000019802B080BDC04680B582B000F012FCA5
:100860001F480068702108400028009014D0FFE75E
:100870000098102814D0FFE70098202815D0FFE733
:100880000098302816D0FFE70098402817D0FFE7DF
:100890000098502818D01CE01248006801901BE016
:1008A000104800684008019016E00E480068800873
:1008B000019011E00B480068C00801900CE0094865
:1008C00000680009019007E00648006840090190AF
:1008D00002E000200190FFE7019802B080BDC04611
:1008E000340200400800002087B028480190002012
:1008F00006902748006800906846807805210842E5
:1009000041D1FFE768468078C006800F00280ED0EE
:10091000FFE700980321C9040840884203D1FFE79C
:100920001D48059002E01B480590FFE702E01948CA
:100930000590FFE7684680788007002803D5FFE729
:10094000059806901EE000984CF200010840800BCC
:1009500001A901430878029000983F2108400490C3
:10096000009841F600610840400A0390059880080D
:10097000049941430398029A4243B1FBF2F080008C
:100980000690FFE7FFE7069807B0704701020404EE
:1009900040020040001BB70000863D00B0B586B0A5
:1009A0000A460346059004915C48006810210840FF
:1009B00003901548046804252C43046008460292FD
:1009C000019300F08BF844490A6807231A430A6030
:1009D000404A14680F25AC43049D2C4314600A68F8
:1009E0009A43059B1A430A60009000F04BFB039862
:1009F000002806D1FFE70448016804229143016002
:100A0000FFE706B0B0BDC04600020040B0B590B0F0
:100A100013460C4605460F900E910D9200200C9047
:100A20000B902A48C1680A91816809914168089130
:100A3000006807902648C168069181680591416861
:100A40000491006803900F98800A00060028029322
:100A50000194009518D0FFE70FA840880C210840AA
:100A600003A908581B4940180B900B9800680F9970
:100A70008A0AD2B249091F2319408A4090430D992E
:100A800008430B990860FFE70F98400E40070028C5
:100A900019D0FFE70F98800E0C21084007A90858CD
:100AA0000D4940180C900C9800680F994A0E0723C6
:100AB0001A40090D1F2319408A4090430E9908439C
:100AC0000C990860FFE710B0B0BDC04630210000AF
:100AD00040210000200200401002004084B0014686
:100AE00002900D4801900091FFE70C4800680299C0
:100AF000084088420AD0FFE70198411E0191002872
:100B000003DCFFE70020039003E0EEE70120039001
:100B1000FFE7039804B0704780F5200050020040C2
:100B200082B001460190009102B0704780B5D9486B
:100B300001680F22120691430160034844F200014C
:100B4000012200F035F880BD4040004083B00146EE
:100B500002AA107001A8082202700091FFE701A804
:100B6000007801281DDBFFE702A8007800060028B6
:100B700004D5FFE70C480121016003E00A48002189
:100B80000160FFE70298400002A9087007480021B1
:100B9000016001210160FFE70198401E01A9087072
:100BA000DDE703B07047C0460048004008480040F9
:100BB000B0B587B013460C460546069005910492E1
:100BC00000200390029301940095FFE703980F28FB
:100BD00019D8FFE70598039901228A4010420DD0E9
:100BE000FFE7069800680399490003228A40904372
:100BF000049A8A40104306990860FFE7FFE70398CC
:100C0000401C0390E2E707B0B0BD000070B58EB0A5
:100C100001460DAA108000200A900D9A09AB1A8097
:100C200008AA0A2313800BAA10700791FFE70BA8EC
:100C30000078032818DCFFE709A8018808AA1388B0
:100C4000B1FBF3F46343C91A0BAB1B789B00374C21
:100C5000E15011880288B2FBF1F10180FFE70B98A7
:100C6000401C0BA90870E2E7304801680AAA11701D
:100C70004168517081689170C068D07010782C49BB
:100C800008180C900C9800780BAB18701878069226
:100C900005910493FFF75AFF01200390FFF756FFD9
:100CA000CD4800210160039A0260069B5C78059D97
:100CB0002C190C940C9C2478049E34703478029087
:100CC00020460191FFF742FF0220FFF73FFF019806
:100CD00002990860039A0A60069B9C78059D2C196E
:100CE0000C940C9C2478049E34703078FFF72EFF0F
:100CF0000420FFF72BFF019802990860039A0A600D
:100D0000069BDC78059D2C190C940C9C2478049E81
:100D100034703078FFF71AFF0820FFF717FF0198AB
:100D200002990860039A0A600EB070BD700000203E
:100D3000FC200000FFE78B48006844F200010842F5
:100D400004D1FFE788480068C0B27047F3E7C046A7
:100D5000B0B58AB013460C46054608900791069236
:100D600008A800784007002803930294019503D552
:100D7000FFE70698059002E007980590FFE70598C1
:100D80008069008804900498124988420AD1FFE7DC
:100D900012480021016005988169891C81610898C9
:100DA000099013E00C4800F00BFD059900900846EF
:100DB000FFF7B6FEFFE70598006801210843002809
:100DC00001D0FFE7F7E708980990FFE709980AB014
:100DD000B0BDC046ABBE0000902100000C0000205A
:100DE000B0B586B013460C460546059004910392B3
:100DF000002002930194009506B0B0BD80B588B084
:100E000000F070F80420FFF7B3FC1020FFF766FE37
:100E10000821079008460691FFF7AAFC0698FFF7FD
:100E20005DFE072100220590084611460492FFF757
:100E3000B5FD16480390FFF779FC032001060398DF
:100E4000049AFFF7E3FD12480290FFF76FFC47F2A8
:100E500000010298049AFFF7D9FD0E480168FF22AD
:100E60001204914333225204114301600A48019055
:100E70000699049AFFF7CAFD0198FFF757FC00F0A6
:100E800001F900F00BF808B080BDC046103D805F4E
:100E90000300C05E3C0000400C00206619480021A1
:100EA0000160704770B582B00146019001980B4A0D
:100EB00003461340012425469D40000E084BC658AA
:100EC0002E43C650019805461540AC40000EC2584E
:100ED000A243C250009102B070BDC046FFFFFF00A8
:100EE00008000040FFE70748592101601621016012
:100EF00088210160FFE7034800680028F3D0FFE77E
:100F00007047C0460001004080B582B001460190A4
:100F10000198009100F002F802B080BD82B0014655
:100F200001900091FFE70F4800680121C9050842C0
:100F300001D0FFE7F7E701A800780A280DD1FFE705
:100F400009480D210160FFE7064800680121C90535
:100F5000084201D0FFE7F7E7FFE701980249086080
:100F600002B07047180007400000074080B582B00B
:100F7000164801680F2291430160016840F6007233
:100F80009143016001684FF20002914301601048F3
:100F9000012101900091009AFFF70AFE04210198B7
:100FA000009AFFF705FE08210198009AFFF700FE5E
:100FB00008480021016008480160084801602C4889
:100FC000016802221143016002B080BD3000004080
:100FD00000400040004800400C48004008480040E5
:100FE00080B582B000F0CEFB40F2E831B0FBF1F208
:100FF0005143401A002835D1FFE71D4800680221FF
:10100000084204D0FFE70120002804D113E00120AA
:10101000002810D1FFE717480188491C018000888B
:101020001549884206D1FFE7114801680222914321
:101030000160FFE70EE00F480188491E018000882B
:10104000002806D1FFE70A48016802221143016027
:10105000FFE7FFE7074802880848094900F0B0FBAE
:101060000190FFE703480088FFF7D0FD02B080BD84
:1010700010000020140000200F2700009F21000016
:101080003522000080B584B016480068072108406A
:101090000290FFF729FC144908600298022806D044
:1010A000FFE70298800011490858039003E00E48BA
:1010B00000680390FFE70E4800680F210840401CBD
:1010C000019003980199B0FBF1F00A4908600868A3
:1010D000094940180949B0FBF1F00949086004B01A
:1010E00080BDC046100200400400002070210000B6
:1010F000200200400800002020A1070040420F000D
:10110000000000200548016840F2031211430C2240
:101110009143016002480349086070474CC0004099
:101120000000000008ED00E080B582B00120C1069B
:10113000834840F2E832019000F08CF80199009069
:10114000084600F012F8212000F0E2FA019800F0C1
:10115000C1F802B080BDC04682B00146019001983E
:1011600001228260009102B0704782B00146019076
:101170000198026801235B071A430260009102B0E4
:10118000704782B0014601900198806801221040AA
:10119000009102B07047000080B584B00146029013
:1011A0000298284A9042009108D1FFE7274800683A
:1011B00040F200710840000A019023E00298604963
:1011C000884208D1FFE72148006847F20001084043
:1011D000000B019015E002981B49884208D1FFE7F7
:1011E0001A480068072109040840000C019007E034
:1011F00016480068072109050840000D0190FFE727
:10120000FFE7FFE70198022812D1FFE702980D4996
:10121000884205D0FFE702984949884204D1FFE798
:10122000FFF7DAFA039009E0FFF716FB039005E0F9
:1012300001988000064908580390FFE7039804B01E
:1012400080BDC0460000054000100540140200406B
:1012500010210000B0B58AB013460C46054609902F
:10126000089107920998039302940195FFF794FF60
:101270000690002005900490079806994908884236
:1012800003D9FFE70220059013E006980799B0FB09
:10129000F1F0059005A8C07804900498002807D0C4
:1012A000FFE705980499491CB0FBF1F00590FFE7B2
:1012B000FFE7089804990843099908600598099977
:1012C000486006980599049A521C4A43B0FBF2F014
:1012D0000AB0B0BD82B001460190019802680123B6
:1012E0009B071A430260009102B0704780B5144812
:1012F000FFF747FF012822D1FFE71148FFF72CFF36
:1013000000F056FA00F03EFA40F2E831B0FBF1F29C
:101310005143401A002806D1FFE70A48016801221C
:1013200051400160FFE700F02DFA3221B0FBF1F2ED
:101330005143401A002801D1FFE7FFE7FFE780BDD6
:10134000000105407848004080B51448006841F22B
:101350000011084204D0FFE70120002804D10FE06B
:10136000012000280CD1FFE7FFE70D48006844F298
:101370000001084203D1FFE700F08AF9F5E7FFE733
:10138000074800687121084206D0FFE7DE4842F2B4
:10139000004100F055F8FFE780BDC0461C00074043
:1013A0001800074080B58CB01F48FFF77BFDE12097
:1013B0004102D5480B9000F0A5F811210B9800F0E0
:1013C00091F8242000F0A4F9FFF7DEF917490A90FC
:1013D00008460A9900F0F4F90990FFF7DBF914497F
:1013E00008900846089900F0EBF90790FFF7E2F93A
:1013F000104906900846069900F0E2F90590FFF7BB
:10140000EBF90D4904900846049900F0D9F90390CE
:10141000FFF722FA094902900846029900F0D0F934
:1014200001900CB080BDC046100000040A220000EC
:10143000DC210000F3210000AA210000C3210000EC
:1014400084B00A4603460390029102A8C078C00700
:1014500000280192009305D0FFE7039801210904B9
:101460008161FFE702A840784007002807D5FFE721
:10147000039860218161039808218161FFE702A838
:1014800040780007002806D5FFE70398416901224C
:1014900011434161FFE702A840788006002804D587
:1014A000FFE703980D498161FFE702A840784006F5
:1014B000002804D5FFE703981F214164FFE702A835
:1014C00040780006002807D5FFE703988021C16116
:1014D000039803498163FFE704B0704701000001EE
:1014E0000F03000010B584B00A4603460390029132
:1014F000029803994C6804434C600192009304B035
:1015000010BD0000F0B58DB00A4603460C900B915B
:1015100000200A900990564903ACE0C9E0C4E0C934
:10152000E0C402900C9878498842019200930FD150
:10153000FFE754480068072109060840000E0A909A
:101540005148006840F600710840000A099028E000
:101550000C98484988420FD1FFE74A4800680721A4
:1015600009070840000F0A90474800684FF2000141
:101570000840000B099013E00C983F4988420DD1B8
:10158000FFE73E480068072109060840000E0A9060
:101590003B4800680F210840099000E0FFE7FFE7A3
:1015A000FFE70C98002101630C980321C1600C989F
:1015B0008168364A114081600A98012807D1FFE707
:1015C000FFF792F90A99890003AA5050FFE70A9899
:1015D000042819D1FFE70C984B49884205D0FFE752
:1015E0000C982549884207D1FFE7FFF7F5F80A99DB
:1015F000890003AA505006E0FFF72EF90A998900E6
:1016000003AA5050FFE7FFE70B9800282ED0FFE712
:101610000A98800003A908580999491CB0FBF1F009
:101620000B994A088018B0FBF1F0801E029002A8C6
:101630004088002812D0FFE70A98800003A90858C4
:101640000999491CB0FBF1F00B99CA008018B0FB56
:10165000F1F00009801E0C99486206E0029803210F
:10166000090708430C994862FFE7FFE70DB0F0BD9A
:10167000E420000000100740002007401C0200404A
:101680003002004014020040200200400FFFF0FF33
:1016900080B584B003A8002101701B49096801705E
:1016A0000078782805D0FFE703A80078582803D1F0
:1016B000FFE700F04BF8FFE703A80078802805DB80
:1016C000FFE7124800F07CF802901AE003A80078C7
:1016D0003128019010D0FFE7019858280DD0FFE77E
:1016E00001985A2809D0FFE70198782805D0FFE72C
:1016F00001987A2801D003E002E000F027F8FFE724
:10170000FFE704B080BDC046000007402322000070
:1017100082B0014601AA1070107840B200280091F2
:101720000EDBFFE701A8007840B21F2102460A4005
:1017300001219140C008034A1040034A8150FFE74D
:1017400002B07047FCFFFF1F00E100E0BFF34F8FC6
:10175000034804490160BFF34F8FFFE700BFFDE777
:101760000CED00E00400FA0580B584B00A4603469B
:1017700003900291039801920093FFF7C5FB039831
:1017800004B080BD0D4800687047C04680B582B087
:1017900000200190FFF732FBFFF704FEFFF7C6F9C8
:1017A000FFF7C2FCFFF7E2FBFFE7FFF719FCFCE7DE
:1017B00002480168491C01607047C0466C00002067
:1017C0000FB410B503A9044B044A029800F0E8F8DE
:1017D00010BC08BC04B018476917000018000020AE
:1017E0002021020C01D010211046020A01D010461F
:1017F0000839020901D01046091F820801D010469D
:10180000891E420801D0881E7047081A704702E0FE
:1018100008C8121F08C1002AFAD17047704700207B
:1018200001E001C1121F002AFBD17047F0B51FB4BF
:1018300086B00998089A030D0021024314D051483C
:10184000514A1818504305141198012810981AD0BD
:10185000281A401C00264D4F4D49009601910490D6
:10186000002812DA444211E01198012449A301280A
:1018700001D11098C1430698119A84600360C26038
:1018800041600BB0F0BD4042E4E704462105002072
:101890003F4A001C51410391029012E0E00707D03B
:1018A00032463B4601990098FEF786FD0191009073
:1018B00032463B4610461946FEF77EFD06460F4669
:1018C0006410002CEAD10498039B0028029A09991D
:1018D000089806DAFEF770FD019B009AFEF76CFD92
:1018E00005E0FEF7D1FD019B009AFEF7CDFD044611
:1018F0000E460022284BFEF75FFE03D80020C043AF
:10190000014607E00022254B20463146FEF7A2FCA7
:10191000FEF732FE102409E0002C0ADB0A22002325
:10192000FEF768FC079B30321A55641E02460A43D4
:10193000F2D11122641C079B121B1C19119B012B55
:1019400003D0012308430ED10AE0084304D011203C
:1019500010900020119077E71098151A6D1E0BE07B
:101960001098824202DD00236D1C03E0824201DAFE
:1019700000236D1E002BEED0069811998260C16085
:1019800030C07EE701FCFFFF104D00000000144056
:101990000000F03F300000000000F0430000E03F96
:1019A000FFB597B00646002518E2252877D1002418
:1019B0002746FD49049400E00443761C3278012058
:1019C000203A90400842F7D130782A280ED00222DF
:1019D000307801463039092916D804990A23594329
:1019E000303940181443761C0490F1E7189802C867
:1019F00004911890002904DA01204003044348426E
:101A0000049002200443761C30782E2814D1042040
:101A100004437078761C2A2809D11898761C80C84F
:101A2000189009E00A214F43303FC719761C3078DF
:101A3000014630390929F5D930786C2810D006DCF8
:101A40004C281AD068280ED06A2817D104E07428D0
:101A500013D07A2812D110E00120400504430CE095
:101A60000121090501E0032109050C437178814238
:101A700003D1012000052418761C761C30781190C3
:101A800066280BD013DC58287DD009DC00287BD0D9
:101A90004528F6D04628F4D047281AD1A5E118E009
:101AA000632835D0642870D0652812D19DE1702854
:101AB0006CD008DC6728F1D069287BD06E280DD067
:101AC0006F2806D1BAE073282ED0752871D07828F7
:101AD00059D01A9A199990476D1C7EE16002400F07
:101AE000022809D003280DD00428189801680DD0C9
:101AF0000D60001D189070E11898EA1701680D60DC
:101B00004A60F6E7189801680D80F2E70D70F0E77B
:101B100018986A4601781172001D189000205072C2
:101B200002A80090012005E0189802C81890002033
:101B30000091C04361070DD5002101E00199491CC6
:101B40000191B94212DA8142F8DB009A515C002916
:101B5000F4D10BE0002101E00199491C019181427F
:101B6000FADB019A0099895C0029F5D10199049862
:101B70001A9B471A21463846199A00F097FA01999C
:101B8000401945180BE04FE02CE113E04EE00098BF
:101B900000990078491C00911A9A19999047019868
:101BA000401E0190401CF2D1214638461A9B199ADA
:101BB00010E137E00A200021009001916002410FFE
:101BC000022907D0189A01CA1892C217944603290D
:101BD00008D00AE01898C01DC108C90005C91891AD
:101BE000944607E000B2C2179446042902D140B2DD
:101BF000C1178C4600226146944506DA0A46002148
:101C0000404291418C462D2102E0210504D52B2133
:101C10006A461173012103E0E10701D02021F7E7B3
:101C2000029155E00A200AE0102008E01020009000
:101C30000021042004430191082703E0082000212B
:101C4000019100906002410F022907D0189A01CA41
:101C5000189200229446032908D008E01898C01D65
:101C6000C108C90005C91891944603E080B204294F
:101C700000D1C0B200210291210729D51199702904
:101C800006D0009A1021019B4A401A4305D00EE06D
:101C900040216A461173012108E06146014306D0E4
:101CA00030216A4611731199517302210291009AF1
:101CB0000821019B4A401A430AD16146014301D1E0
:101CC000610705D530216A46117301217F1E0291FB
:101CD0001199582904D035A10E910DA90D910DE04F
:101CE00037A1F9E76146019B009AFEF783FA0E9B44
:101CF0008C469B5C0D9A521E0D92137061460143F7
:101D0000F0D10D9805A9081A20300190600703D57D
:101D100001200004844300E001270198874201DD8F
:101D2000381A00E000200199009041180298091823
:101D30000498401A0490E00306D421461A9B199A8D
:101D4000049800F0B3F94519002706E003A81A9A91
:101D5000C05D199990476D1C7F1C02988742F5DB86
:101D6000E0030CD521461A9B199A049800F09EF9BD
:101D7000451904E01A9A3020199990476D1C009972
:101D8000481E00900029F5DC08E00D980D990078B8
:101D9000491C0D911A9A199990476D1C0199481E7A
:101DA00001900029F1DC63E1092801003031323370
:101DB0003435363738396162636465660000000087
:101DC0003031323334353637383941424344454671
:101DD0000000000000F05AF94519761C3078002800
:101DE00000D0E2E528461BB0F0BD600700D406270E
:101DF0001898C01DC108C90048680A680831C30F97
:101E0000DB071891190001D09CA108E0210501D53C
:101E10009BA104E0E10701D09AA100E09AA1430050
:101E200011985B08109165280CD006DC452809D074
:101E300046281DD0472841D141E0662818D06728A0
:101E40003CD13CE00021112F01DB112000E0781C87
:101E50000191009008A911A8FFF7E8FC13990591DA
:101E60000021119A15927F1C12980197009150E061
:101E70000120C00703900120019008A9009711A834
:101E8000FFF7D4FC139A149905920022119B00923B
:101E900012981593059A0192002901D0104602E08C
:101EA000791C40180190381A01D5019804E040428D
:101EB000401E0090781C0190C01B029043E0012F4F
:101EC00000DA01270021112F01DD112000E0384642
:101ED0000191009008A911A8FFF7A8FC139905919A
:101EE000119A0021129815920091019721070CD4A4
:101EF0000599B94201DB019900E00191012904DD56
:101F0000159A491E515C302906D0B84201DA011DEC
:101F100005DA0121029115E00199491EEDE700283B
:101F200005DC0099411800910199091A03E0019A12
:101F3000411C914200DD01910099401A401C029021
:101F40000120C0070390200706D40299019881421E
:101F500002DB0020C043029000206946C87707AF2B
:101F6000012103980337C907884224D00220119029
:101F70002B201290039800280CDA404203902D2069
:101F8000129007E00A210398FEF71EF930317F1EF8
:101F9000039039701199481E11900029F2DC0398C2
:101FA0000028EFD1791E129808703078202108405F
:101FB0004530BF1E387006A8C01BC01D0390109886
:101FC0000078002800D00120019941180298C0171C
:101FD0000918039809180498401A401E0490E00359
:101FE00006D421461A9B199A049800F05FF8451907
:101FF00010980078002803D01A9A199990476D1C00
:10200000E00324D521461A9B199A049800F04EF853
:1020100045191CE00098002807DB009905988842C4
:1020200003DD1598405C199901E0199930201A9A3E
:10203000904700986D1C401C00900298401E029032
:10204000002804D11A9A2E20199990476D1C0199E5
:10205000481E01900029DDDC05E038781A9A7F1CC3
:10206000199990476D1C0399481E03900029F4DCD0
:1020700021461A9B199A0498ACE600002D00000036
:102080002B0000002000000000000000F8B504460E
:1020900000251E461746880404D405E03946202052
:1020A000B0476D1C641EF9D52846F8BDFFB504463F
:1020B000002581B01E46C80301D5302700E0202747
:1020C000880404D505E038460399B0476D1C641EAA
:1020D000F9D5284605B0F0BD00000000040000005E
:1020E00008000000001BB700000000000080000096
:1020F000006CDC020000000000960000C0F9A4B0F3
:10210000999282F880908CBFC6A186FFBF00000024
:10211000001BB7000080000000000000000000006D
:10212000000000000096000000000000006CDC02CF
:102130000000000004000000080000000C00000087
:1021400000000000040000000C000000100000006F
:102150000000000004000000080000000C00000067
:102160000000000004000000080000001000000053
:10217000001BB70000800000000000000096000077
:102180000000000000863D0000000000006CDC0242
:102190002020486172644661756C74210A0A00252A
:1021A00073203A202534640D0A00434C4B5F476589
:1021B0007450434C4B3046726571203A2025386488
:1021C0000D0A00434C4B5F47657450434C4B3146FE
:1021D000726571203A202538640D0A00434C4B5F2C
:1021E00047657448585446726571203A2025386412
:1021F0000D0A00434C4B5F4765744C58544672655A
:1022000071203A202538640D0A000D0A434C4B5FBB
:1022100047657443505546726571203A20253864ED
:102220000D0A00696E76616C696420636F6D6D6183
:102230006E640D0A00536576656E5F5365676D6564
:102240006E745F6C6F6F70006822000000000020E9
:10225000100000000E18000078220000100000207E
:10226000700800001E18000030000000006CDC0246
:08227000006CDC02010000001B
:0400000500000155A1
:00000001FF
